:020000040800F2
:10000000002800206D110008BD110008BD11000876
:10001000BD110008BD110008BD110008000000005E
:10002000000000000000000000000000BD110008FA
:10003000BD11000800000000BD110008BD1100083E
:10004000BD110008BD110008BD110008BD11000858
:10005000BD110008BD110008BD110008BD11000848
:10006000BD110008BD110008BD110008BD11000838
:10007000BD110008BD110008BD110008BD11000828
:10008000BD110008BD110008BD110008BD11000818
:10009000BD110008BD110008BD110008BD11000808
:1000A000BD110008BD110008BD110008BD110008F8
:1000B000710C0008BD110008BD110008BD11000839
:1000C000BD110008BD110008BD110008BD110008D8
:1000D000BD110008BD110008BD110008BD110008C8
:1000E000BD110008BD11000800000000BD1100088E
:1000F000BD110008BD110008BD110008BD110008A8
:10010000BD110008BD110008BD110008BD11000897
:10011000BD110008BD110008BD110008BD11000887
:10012000BD110008BD110008BD110008BD11000877
:1001300010B5054C237833B9044B13B10448AFF321
:1001400000800123237010BDD401002000000000B6
:10015000345A000808B5034B1BB103490348AFF3F9
:10016000008008BD00000000D8010020345A0008BB
:10017000034613F8012B002AFBD1181A01387047E7
:1001800081F0004102E000BF83F0004330B54FEA48
:1001900041044FEA430594EA050F08BF90EA020FB5
:1001A0001FBF54EA000C55EA020C7FEA645C7FEA48
:1001B000655C00F0E2804FEA5454D4EB5555B8BF6B
:1001C0006D420CDD2C4480EA020281EA030382EADC
:1001D000000083EA010180EA020281EA0303362D6E
:1001E00088BF30BD11F0004F4FEA01314FF4801C41
:1001F0004CEA113102D0404261EB410113F0004F53
:100200004FEA03334CEA133302D0524263EB430309
:1002100094EA050F00F0A780A4F10104D5F1200EA7
:100220000DDB02FA0EFC22FA05F2801841F1000102
:1002300003FA0EF2801843FA05F359410EE0A5F1D6
:1002400020050EF1200E012A03FA0EFC28BF4CF007
:10025000020C43FA05F3C01851EBE37101F00045BD
:1002600007D54FF0000EDCF1000C7EEB00006EEBCA
:100270000101B1F5801F1BD3B1F5001F0CD3490854
:100280005FEA30004FEA3C0C04F101044FEA4452AB
:1002900012F5800F80F09A80BCF1004F08BF5FEA32
:1002A000500C50F1000041EB045141EA050130BD12
:1002B0005FEA4C0C404141EB0101013C28BFB1F524
:1002C000801FE9D291F0000F04BF01460020B1FA6F
:1002D00081F308BF2033A3F10B03B3F120020CDA42
:1002E0000C3208DD02F1140CC2F10C0201FA0CF020
:1002F00021FA02F10CE002F11402D8BFC2F1200C85
:1003000001FA02F120FA0CFCDCBF41EA0C0190403A
:10031000E41AA2BF01EB0451294330BD6FEA040483
:100320001F3C1CDA0C340EDC04F11404C4F120026E
:1003300020FA04F001FA02F340EA030021FA04F380
:1003400045EA030130BDC4F10C04C4F1200220FAD7
:1003500002F001FA04F340EA0300294630BD21FA15
:1003600004F0294630BD94F0000F83F4801306BFDB
:1003700081F480110134013D4EE77FEA645C18BFCF
:100380007FEA655C29D094EA050F08BF90EA020F66
:1003900005D054EA000C04BF1946104630BD91EA5E
:1003A000030F1EBF0021002030BD5FEA545C05D161
:1003B0004000494128BF41F0004130BD14F58004A0
:1003C0003CBF01F5801130BD01F0004545F0FE4114
:1003D00041F470014FF0000030BD7FEA645C1ABF49
:1003E000194610467FEA655C1CBF0B46024650EA80
:1003F000013406BF52EA033591EA030F41F40021AC
:1004000030BD00BF90F0000F04BF0021704730B531
:100410004FF4806404F132044FF000054FF0000106
:1004200050E700BF90F0000F04BF0021704730B5C7
:100430004FF4806404F1320410F0004548BF40429C
:100440004FF000013EE700BF42004FEAE2014FEAF1
:1004500031014FEA02701FBF12F07F4393F07F4FCC
:1004600081F06051704732F07F4208BF704793F0CF
:100470007F4F04BF41F40021704730B54FF46074E2
:1004800001F0004521F000411CE700BF50EA0102E5
:1004900008BF704730B54FF000050AE050EA01028E
:1004A00008BF704730B511F0004502D5404261EBFE
:1004B00041014FF4806404F132045FEA915C3FF43F
:1004C000D8AE4FF003025FEADC0C18BF03325FEADC
:1004D000DC0C18BF033202EBDC02C2F1200300FA8D
:1004E00003FC20FA02F001FA03FE40EA0E0021FAB2
:1004F00002F11444BDE600BF70B54FF0FF0C4CF4A0
:10050000E06C1CEA11541DBF1CEA135594EA0C0F51
:1005100095EA0C0F00F0DEF82C4481EA030621EA8C
:100520004C5123EA4C5350EA013518BF52EA0335C7
:1005300041F4801143F4801338D0A0FB02CE4FF079
:100540000005E1FB02E506F00042E0FB03E54FF0A9
:100550000006E1FB03569CF0000F18BF4EF0010EA1
:10056000A4F1FF04B6F5007F64F5407404D25FEA9D
:100570004E0E6D4146EB060642EAC62141EA555150
:100580004FEAC52040EA5E504FEACE2EB4F1FD0C92
:1005900088BFBCF5E06F1ED8BEF1004F08BF5FEA10
:1005A000500E50F1000041EB045170BD06F00046C2
:1005B00046EA010140EA020081EA0301B4EB5C046F
:1005C000C2BFD4EB0C0541EA045170BD41F4801167
:1005D0004FF0000E013C00F3AB8014F1360FDEBF8C
:1005E000002001F0004170BDC4F10004203C35DA68
:1005F0000C341BDC04F11404C4F1200500FA05F3EB
:1006000020FA04F001FA05F240EA020001F000428B
:1006100021F0004110EBD37021FA04F642EB060101
:100620005EEA430E08BF20EAD37070BDC4F10C042B
:10063000C4F1200500FA04F320FA05F001FA04F2EF
:1006400040EA020001F0004110EBD37041F10001DB
:100650005EEA430E08BF20EAD37070BDC4F12005E6
:1006600000FA05F24EEA020E20FA04F301FA05F24E
:1006700043EA020321FA04F001F0004121FA04F2F6
:1006800020EA020000EBD3705EEA430E08BF20EAC6
:10069000D37070BD94F0000F0FD101F00046400000
:1006A00041EB010111F4801F08BF013CF7D041EA82
:1006B000060195F0000F18BF704703F00046520086
:1006C00043EB030313F4801F08BF013DF7D043EA57
:1006D0000603704794EA0C0F0CEA135518BF95EA0D
:1006E0000C0F0CD050EA410618BF52EA4306D1D194
:1006F00081EA030101F000414FF0000070BD50EAB3
:10070000410606BF1046194652EA430619D094EA3C
:100710000C0F02D150EA013613D195EA0C0F05D126
:1007200052EA03361CBF104619460AD181EA03017A
:1007300001F0004141F0FE4141F470014FF0000032
:1007400070BD41F0FE4141F4780170BD70B54FF0CD
:10075000FF0C4CF4E06C1CEA11541DBF1CEA13554D
:1007600094EA0C0F95EA0C0F00F0A7F8A4EB05042F
:1007700081EA030E52EA03354FEA013100F0888026
:100780004FEA03334FF0805545EA131343EA1263EF
:100790004FEA022245EA111545EA10654FEA0026A4
:1007A0000EF000419D4208BF964244F1FD0404F55D
:1007B000407402D25B084FEA3202B61A65EB0305B9
:1007C0005B084FEA32024FF480104FF4002CB6EB76
:1007D000020E75EB030E22BFB61A754640EA0C00F6
:1007E0005B084FEA3202B6EB020E75EB030E22BF36
:1007F000B61A754640EA5C005B084FEA3202B6EB77
:10080000020E75EB030E22BFB61A754640EA9C0035
:100810005B084FEA3202B6EB020E75EB030E22BF05
:10082000B61A754640EADC0055EA060E18D04FEAC3
:10083000051545EA16754FEA06164FEAC30343EA63
:1008400052734FEAC2025FEA1C1CC0D111F4801F30
:100850000BD141EA00014FF000004FF0004CB6E729
:1008600011F4801F04BF01430020B4F1FD0C88BFC8
:10087000BCF5E06F3FF6AFAEB5EB030C04BFB6EBD3
:10088000020C5FEA500C50F1000041EB045170BDC6
:100890000EF0004E4EEA113114EB5C04C2BFD4EBF3
:1008A0000C0541EA045170BD41F480114FF0000E77
:1008B000013C90E645EA060E8DE60CEA135594EAF3
:1008C0000C0F08BF95EA0C0F3FF43BAF94EA0C0FF6
:1008D0000AD150EA01347FF434AF95EA0C0F7FF46B
:1008E00025AF104619462CE795EA0C0F06D152EABF
:1008F00003353FF4FDAE1046194622E750EA4106A3
:1009000018BF52EA43067FF4C5AE50EA41047FF4B3
:100910000DAF52EA43057FF4EBAE12E74FF0FF3C18
:1009200006E000BF4FF0010C02E000BF4FF0010CE9
:100930004DF804CD4FEA410C7FEA6C5C4FEA430C62
:1009400018BF7FEA6C5C1BD001B050EA410C0CBFB1
:1009500052EA430C91EA030F02BF90EA020F002013
:10096000704710F1000F91EA030F58BF994208BF7A
:1009700090422CBFD8176FEAE37040F00100704737
:100980004FEA410C7FEA6C5C02D150EA013C07D18E
:100990004FEA430C7FEA6C5CD6D152EA033CD3D0D9
:1009A0005DF8040B704700BF8446104662468C46D3
:1009B0001946634600E000BF01B5FFF7B7FF002806
:1009C00048BF10F1000F01BD4DF808EDFFF7F4FF2F
:1009D0000CBF012000205DF808FB00BF4DF808EDBA
:1009E000FFF7EAFF34BF012000205DF808FB00BFDD
:1009F0004DF808EDFFF7E0FF94BF012000205DF8FF
:100A000008FB00BF4DF808EDFFF7CEFF94BF0120B3
:100A100000205DF808FB00BF4DF808EDFFF7C4FFAC
:100A200034BF012000205DF808FB00BF4FEA410CF5
:100A30007FEA6C5C02D150EA013C0AD14FEA430CD8
:100A40007FEA6C5C02D152EA033C02D14FF0000015
:100A500070474FF0010070474FEA410212F5001253
:100A600015D211D56FF47873B3EB625212D94FEAF5
:100A7000C12343F0004343EA505311F0004F23FADF
:100A800002F018BF404270474FF00000704750EA34
:100A9000013005D111F0004008BF6FF000407047F1
:100AA0004FF00000704700BF4A0011D212F500124B
:100AB00011D20DD56FF47873B3EB62520ED44FEAB6
:100AC000C12343F0004343EA505323FA02F0704736
:100AD0004FF00000704750EA013002D14FF0FF3074
:100AE00070474FF0000070474FEA4102B2F1E04317
:100AF00024BFB3F5001CDCF1FE5C0DD901F0004C05
:100B00004FEAC0024CEA5070B2F1004F40EB830054
:100B100008BF20F00100704711F0804F21D113F180
:100B20003872BCBF01F00040704741F480114FEAB9
:100B30005252C2F11802C2F1200C10FA0CF320FA42
:100B400002F018BF40F001004FEAC1234FEAD3235F
:100B500003FA0CFC40EA0C0023FA02F34FEA4303C9
:100B6000CCE77FEA625307D150EA01331EBF4FF052
:100B7000FE4040F44000704701F0004040F0FE406D
:100B800040F40000704700BF38B50C4605462146CA
:100B9000284600220023FFF721FF28B928462146D6
:100BA000BDE8384000F00AB8284604F1004100F0E2
:100BB00005F8404261EB410138BD00BFD0B50022CD
:100BC0000B4B06460F46FFF797FCFFF76DFF0446F9
:100BD000FFF718FC0022074BFFF78EFC02460B467E
:100BE00030463946FFF7D0FAFFF75EFF2146D0BD09
:100BF0000000F03D0000F04180B483B000AF034638
:100C0000FB7197F90730002B0BDBFB7903F01F0218
:100C1000064997F907305B09012000FA02F241F812
:100C2000232000BF0C37BD4680BC704700E100E0C8
:100C300080B483B000AF0346FB710C4AFB79536369
:100C40000A4B9B68094A43F48003936000BF074B3B
:100C50001B6803F00203002BF9D0044BDB6C9BB242
:100C600018460C37BD4680BC704700BF00240140C9
:100C700080B582B000AF4FF080431B694FF08042D7
:100C800023F0010313610E20FFF7D2FF0346FB8020
:100C9000064B1B88FA889A4204D9044AFB881380C1
:100CA00000F026F900BF0837BD4680BDF2010020E4
:100CB00080B400AF2E4B1B682D4A43F00103136034
:100CC00000BF2B4B1B6803F00203002BF9D0294B0C
:100CD0001B68284A43F010031360264B1B68254A03
:100CE00023F007031360234B1B68224A43F00403DD
:100CF00013601F4B1E4A5B6853601D4B1C4A5B68A8
:100D000053601B4B5B681A4A43F480635360184B73
:100D10005B68174A23F480335360154B5B68144AB1
:100D200043F460135360124B1B68114A43F0807305
:100D3000136000BF0E4B1B6803F00073002BF9D04B
:100D40000B4B5B680A4A23F003035360084B5B6854
:100D5000074A43F00203536000BF054B5B6803F092
:100D60000C03082BF9D100BF00BFBD4680BC704703
:100D7000001002400020024080B500AF204B9B696C
:100D80001F4A43F0040393611D4B9B691C4A43F0C7
:100D9000010393611A4B9B69194A43F480439361A1
:100DA000184B5B68174A23F0F0035360154B5B68E0
:100DB000144A43F0A0035360124B5B68114A23F4BA
:100DC000706353600F4B5B680E4A43F4806353605B
:100DD0000D4B40F605529A600B4BDB680A4A43F410
:100DE000005343F00C03D360074BDB68064A43F023
:100DF0002003D3602520FFF7FFFE00BF80BD00BFAA
:100E000000100240000801400038014080B500AFEA
:100E1000214B9B69204A43F0100393611F4B1B68D1
:100E20001E4A23F4702313601B4B9B691A4A43F438
:100E3000007393611A4BDB68194A43F4E043D360B3
:100E4000174B9B68164A43F400039360144B9B684E
:100E5000134A43F460239360114B9B68104A43F498
:100E6000801393600E4B9B680D4A43F0010393601F
:100E70000A2000F0A7F80A4B9B68094A43F00403D4
:100E8000936000BF064B9B6803F00403002BF9D06E
:100E900000BF00BF80BD00BF001002400010014035
:100EA0000024014090B585B000AF78600023FB813D
:100EB0000FE0FB897A6813441A780C4B5A6000BF24
:100EC0000A4B1B6803F04003002BF9D0FB89013368
:100ED000FB81FC897868FFF74BF903469C42E8D315
:100EE00000BF00BF1437BD4690BD00BF00380140B1
:100EF00090B583B002AF4FF4807200211C4800F01F
:100F000089F90E20FFF794FE03461A46194B1A8002
:100F1000194B1B881846FFF785FA13A3D3E9002362
:100F2000FFF7EAFA02460B4610461946FFF7DCFDCA
:100F30000346124A1360104B1B881C460F4B1B685C
:100F40001846FFF781FA02460B46CDE900232246F8
:100F50000B49074800F0DCFF0548FFF7A3FF00BF7F
:100F60000437BD4690BD00BFB4D934E70C684A3F92
:100F700004020020F0010020F2010020F401002012
:100F8000505A000880B582B000AFFFF791FEFFF71E
:100F9000F3FEFFF73BFF0E20FFF74AFE0346FB8000
:100FA000064B1B88FA889A4204D9044AFB881380AE
:100FB000FFF79EFF024800F005F8ECE7F201002081
:100FC000A086010080B485B000AF78600023FB608C
:100FD00002E0FB680133FB60FB687A689A42F8D84C
:100FE00000BF00BF1437BD4680BC704780B400AF5F
:100FF00001231846BD4680BC704780B582B000AF63
:101000007860396000F0DCF8034616221A604FF071
:10101000FF3318460837BD4680BD80B582B000AFAB
:1010200078604FF0FF317868FFF7E7FFFEE780B5A3
:1010300086B000AFF860B9607A6000237B610AE097
:10104000AFF300800146BB685A1CBA60CAB21A707E
:101050007B6901337B617A697B689A42F0DB7B684C
:1010600018461837BD4680BD80B586B000AFF86021
:10107000B9607A6000237B6109E0BB685A1CBA60E2
:101080001B781846AFF300807B6901337B617A6976
:101090007B689A42F1DB7B6818461837BD4680BDF5
:1010A00080B483B000AF78604FF0FF3318460C3740
:1010B000BD4680BC704780B483B000AF78603960B3
:1010C0003B684FF400525A60002318460C37BD4667
:1010D00080BC704780B483B000AF786001231846AD
:1010E0000C37BD4680BC704780B485B000AFF86057
:1010F000B9607A60002318461437BD4680BC70473B
:1011000080B586B000AF7860144A154BD31A7B6166
:101110007B693B61134B1B68002B02D1114B124AB8
:101120001A60104B1A687B6813443A699A4207D2D6
:1011300000F046F803460C221A604FF0FF3309E036
:10114000084B1B68FB60074B1A687B681344054A11
:101150001360FB6818461837BD4680BD0028002084
:1011600000040000F8010020180300200D48854607
:10117000AFF300800C480D490D4A002302E0D4581B
:10118000C4500433C4188C42F9D30A4A0A4C0023D1
:1011900001E013600432A242FBD300F017F8FFF71E
:1011A000F1FEFEE70028002000000020D40100200E
:1011B0001C5F0008D401002014030020FEE700009B
:1011C000014B1868704700BF0000002070B5002672
:1011D0000C4D0D4C641BA410A64209D104F02AFC4E
:1011E00000260A4D0A4C641BA410A64205D170BD0E
:1011F00055F8043B98470136EEE755F8043B98470D
:101200000136F2E7145F0008145F0008145F00085D
:10121000185F000803460244934200D1704703F868
:10122000011BF9E7002B2DE9F0471F46BBBF03F177
:1012300000431F4600232D2388B01446129A109DA8
:101240001370149BDDF84CA023F02008B8F1460F72
:1012500005D0B8F1450F00D10135022300E003238A
:1012600007AA049206AACDE902A2CDE900352246DA
:101270003B4601F0A1FDB8F1470F064602D1119B94
:10128000DB0722D5B8F1460F06EB050910D13378FC
:10129000302B0AD10022002320463946FFF794FB69
:1012A00018B9C5F10105CAF80050DAF800309944C0
:1012B0000022002320463946FFF786FB08B1CDF80F
:1012C0001C903022079B4B4507D33046079B159A4D
:1012D0009B1B136008B0BDE8F087591C07911A707A
:1012E000F0E70346F7B5002903F8022BB6BF2D221D
:1012F0002B224942092942702BDD0DF10704A44637
:101300000A2791FBF7F60A46A64607FB1615632A3D
:1013100005F13005314604F1FF340EF8015CF0DCD4
:101320003031AEF1020504F8011C2946441C614528
:101330000AD30DF10902A2EB0E02654588BF002217
:101340001344181A03B0F0BD11F8012B04F8012F53
:10135000EDE7302330318370C170031DF1E70000E9
:101360002DE9F04F91B00C46DDF8688016461F4617
:10137000054602F075FE036818460993FEF7F8FE6D
:1013800000230E93D8F800300A90073323F00703A8
:1013900003F1080294F81890D4F800B0C8F80020BF
:1013A000D3E90023C4E91223D4E9128A2AF00043C6
:1013B0000B934FF0FF3240469C4B0B99FFF736FBE7
:1013C00070BB4FF0FF324046984B0B99FFF710FB74
:1013D00030BB0022002340465146FFF7FFFA10B110
:1013E0002D2384F84330924B9248B9F1470F94BFB4
:1013F0009846804603234FF0000A23612BF0040334
:10140000236033462146284600970FAA00F0D4F9FE
:10141000013040F090804FF0FF3011B0BDE8F08F08
:101420004246534640465146FFF700FB48B1BAF1E9
:10143000000FB8BF2D238048B8BF84F843307F4BDE
:10144000D3E7636809F0DF015A1C42D106236360C9
:10145000002206920EAACDE904920DAA4BF48063F5
:1014600003920DF13302CDE90132236063684246F5
:101470000093284653460B91FFF7D4FE0B99804604
:1014800047290D9908D1C81C02DB6368994240DDE9
:10149000A9F102095FFA89F9B9F1650F1FD84A4627
:1014A000013904F150000D91FFF71BFF0E9A82469F
:1014B0001318012A236102DC2268D20701D5013307
:1014C00023619DF83330002B9BD02D2384F84330CB
:1014D00097E74729BCD1002BBAD10123B7E7B9F16F
:1014E000660F18D1002963680BDD216113B92268EA
:1014F000D00702D501330B4423614FF0000AA165E8
:10150000DFE713B92268D20701D50233F4E70123DC
:10151000F2E74FF067090E9B994205DB23682161D2
:10152000D807EAD54B1CE7E70029CCBF0122C1F15F
:1015300002021344E0E723685A0507D423694246B0
:1015400031462846B84701302BD164E7B9F1650F21
:1015500040F2DD80D4E9120100220023FFF734FAC3
:10156000002833D0012331462846354AB847013098
:101570003FF451AFDDE90D239A4202DB2368D8071F
:101580000FD5DDE9092331462846B84701303FF43D
:1015900042AF4FF0000804F11A090E9B013B43458E
:1015A00009DC23689B0700F10281E0680F9B9842E9
:1015B000B8BF184631E701234A4631462846B847A6
:1015C00001303FF428AF08F10108E6E70D9B002B3E
:1015D00038DC012331462846194AB84701303FF428
:1015E0001AAFDDE90D23134302D12368D907D8D5FB
:1015F000DDE9092331462846B84701303FF40BAFF7
:101600004FF0000904F11A0A0D9B5B424B4501DCC7
:101610000E9B94E70123524631462846B8470130D5
:101620003FF4F9AE09F10109EEE700BFFFFFEF7FDC
:10163000645A0008685A0008705A00086C5A00087A
:10164000745A00080E9AA36D9A42A8BF1A46002A3F
:10165000914637DC4FF0000B29EAE97904F11A02D0
:10166000D4F858A0AAEB09035B4533DCDDE90D2370
:101670009A423BDB2368DA0738D40E9A0D99A2EB25
:101680000A03A2EB01099945A8BF9946B9F1000FD9
:1016900034DC4FF0000829EAE97904F11A0ADDE99F
:1016A0000D239B1AA3EB090343457FF77AAF012370
:1016B000524631462846B84701303FF4ACAE08F1F7
:1016C0000108ECE71346314642462846B847013048
:1016D000C0D1A0E60123314628460B92B84701301D
:1016E0003FF499AE0B9A0BF1010BB9E73146DDE9F6
:1016F00009232846B8470130BFD18CE64B46314616
:10170000284608EB0A02B8470130C2D183E60E9A98
:10171000012A01DCDB0737D5012342463146284642
:10172000B84701303FF477AEDDE90923314628465A
:10173000B84701303FF46FAED4E912010022002314
:10174000FFF742F9D8B90E9B08F10102013B31467F
:101750002846B84701300ED15DE601234A4631469E
:101760002846B84701303FF456AE08F101080E9BF9
:10177000013B4345F1DC534604F15002E0E64FF0F3
:10178000000804F11A09F2E701234246DFE70123CA
:101790004A4631462846B84701303FF43CAE08F18E
:1017A0000108E3680F995B1A4345F0DCFDE64FF052
:1017B000000804F11909F4E72DE9F04716469946A7
:1017C0008A680B6907469342B8BF1346336091F8A5
:1017D00043200C46DDF820800AB1013333602368D2
:1017E000990642BF336802333360256815F0060559
:1017F00006D104F1190AE36832689B1AAB4228DC6F
:1018000094F84320131E226818BF012392062DD49A
:101810004946384604F14302C047013020D02368CE
:10182000E56803F00603042B18BF002532684FF06B
:101830000006A36808BFAD1A226908BF25EAE5754E
:101840009342C4BF9B1AED181A34B5421AD1002036
:1018500008E00123524649463846C047013003D1CB
:101860004FF0FF30BDE8F0870135C4E73020E118C4
:1018700081F843005A1C94F845102244023382F840
:101880004310C5E70123224649463846C047013088
:10189000E6D00136D9E700002DE9FF470C46277E48
:1018A0009146782F80469A460C9904F1430207D856
:1018B000622F0AD8002F00F0D980582F00F0A480A2
:1018C00004F1420684F842703AE0A7F16303152B55
:1018D000F6D801A050F823F0311900084519000886
:1018E000C1180008C1180008C1180008C118000874
:1018F00045190008C1180008C1180008C1180008DF
:10190000C1180008531A000875190008351A000894
:10191000C1180008C1180008751A0008C11800088D
:1019200075190008C1180008C11800083D1A000800
:101930000B6804F142061A1D1B680A6084F84230E5
:101940000123A4E0256808682E0600F104030AD5E7
:1019500005680B60002D03DA2D236D4284F84330B7
:101960000A235E4819E015F0400F05680B6018BFA8
:101970002DB2EFE70B682568181D0860280601D511
:101980001D6802E06906FBD51D886F2F0CBF082378
:101990000A235248002184F843106668002EA8BF2D
:1019A0002168A660A4BF21F0040121600DB9002EBA
:1019B0004DD01646B5FBF3F103FB1157C75D06F892
:1019C000017D2F46BB420D46F4D9082B0BD123686D
:1019D000DF0708D5236961689942DEBF302306F826
:1019E000013C06F1FF36921B22614B4621464046E0
:1019F000CDF800A003AAFFF7DFFE01304CD14FF075
:101A0000FF3004B0BDE8F087344884F845700E68B4
:101A1000236856F8045B1F060E6014D5D90744BF2F
:101A200043F0200323601DB9236823F020032360C3
:101A30001023AFE7236843F020032360782328486E
:101A400084F84530E3E75E0648BFADB2E6E71646E8
:101A5000BBE70B6826681D1D60690D6035061B68B5
:101A600001D5186002E07106FBD5188000231646E8
:101A70002361BAE70B681A1D0A601E680021304610
:101A8000626802F00BFB08B1801B60606368236131
:101A9000002384F84330A8E732464946404623698C
:101AA000D0470130ABD023689B0713D4E068039B79
:101AB0009842B8BF1846A4E701233246494640463B
:101AC000D04701309BD00135E36803995B1AAB42E4
:101AD000F2DCEBE7002504F11906F5E7765A000879
:101AE000875A00082DE9F04F87B003938B6817469B
:101AF0005A1EB2F5AE7F85BF6FF4AE755B19002339
:101B0000029388BF40F25D138B464FF000058CBFF7
:101B10008B6002930B68804643F4F0634BF81C3BE8
:101B20000C465E46AA46A946CDE904550195A26831
:101B300052B13B681B784E2B64D8402B3CD8A3F1A4
:101B40002B01C8B20E283AD9B9F1000F03D023688F
:101B500023F4807323600AF1FF3ABAF1010F00F217
:101B600013815E4500F205810125284607B0BDE8D6
:101B7000F08FA3F161020D2AE6D801A151F822F0FD
:101B8000BF1C0008491B0008491B0008491B00082E
:101B90001F1D0008F71C0008491B0008491B00080E
:101BA000CD1C0008491B0008491B0008491B000800
:101BB000491B0008851C0008A3F14102DBE70E2940
:101BC000C2D801A050F821F0771C0008491B00087A
:101BD000771C00080B1D0008491B0008251C000885
:101BE000611C0008611C0008611C0008611C0008E1
:101BF000611C0008611C0008611C0008611C0008D1
:101C0000611C00086E2B09D8602BB2D8542B77D0FA
:101C1000592B99D1072D97D1082529E0742B6FD026
:101C2000792BF6E72168C8051AD5029B21F08001BF
:101C3000216009F101091BB1013B01320293A2604D
:101C4000A368013BA3602369013323617B68013BE7
:101C5000002B7B6040F384803B6801333B6066E788
:101C60001AEB050F7FF470AF226822F4C072226075
:101C700006F8013BE4E7226810067FF565AF22F025
:101C80008002F4E7BAF1000F0ED1B9F1000F0ED1C6
:101C9000226802F4E061B1F5E06F08D122F4F0624D
:101CA0004FF0010A2260E3E7BAF1020F55D0012D8F
:101CB00002D0042D7FF448AF0135EDB2D8E7BAF178
:101CC000010F7FF441AF4FF0020AD1E77DB9B9F1BE
:101CD000000F7FF43CAF226802F4E061B1F5E06FE1
:101CE0007FF439AF22F4F06201252260C0E7032DB2
:101CF000E2D0052DDEE7022D7FF426AF0325B7E7FE
:101D0000062D7FF421AF0725B2E7226891057FF504
:101D10001BAF22F420722260CDF80490A8E722685D
:101D200002F4A061B1F5806F06D050057FF50CAFCD
:101D3000B9F1000F3FF40FAF910558BF019922F49C
:101D4000F06258BFA9EB010142F4C0724FF00009E4
:101D500058BFCDE9041622608AE74FF0030A87E7EF
:101D600039464046D4F88031984700283FF4DFAE2A
:101D7000EAE6D4F87C313A46404616F8011D984709
:101D80002369013B2361ECE66B1E062B25D8022D4F
:101D900036D85E457FF6E8AED4F87C313A46404608
:101DA00016F8011D98472369013B2361F1E702986A
:101DB000D4F87C3110F8011D3A460290404698470D
:101DC0002369013B23610AF1FF3A5FFA8AFABAF10B
:101DD000020FECD1033DEDB2761B2368DA052FD557
:101DE0005B0510D55E457FF6BFAED4F87C313A4630
:101DF000404616F8011D98472369013B2361F1E72E
:101E0000AA460296DFE716F8011C2369652903F14B
:101E1000FF3306F1FF3523610CD045290AD0D4F8F1
:101E20007C313A4640469847236916F8021C013B2C
:101E3000B51E23613A464046D4F87C3198472E4679
:101E4000256815F0100559D13570236803F4C06377
:101E5000B3F5806F1CD1019B4B45A3EB090224D144
:101E600000225946404600F08BFED4F800C0039B88
:101E70001CF0020F06460F461B6821D003991A1D5D
:101E80000A601B68C3E90067E3680133E3606CE63E
:101E9000049B002BE4D005990A232A4640460131D1
:101EA00000F0FAFE049B059EC21A04F26F139E42D4
:101EB00028BF04F5B7763046114900F029F8CFE77E
:101EC0001CF0040F03F1040E03D00399C1F800E0E5
:101ED000D7E7039AC2F800E0D3F8008002460B4629
:101EE000FEF7A4FD28B1074800F00EF8C8F800007E
:101EF000CAE730463946FEF7F7FDF7E7002534E636
:101F0000985A0008B05E0008004870470000C07F83
:101F10000EB46FF0004100B59CB01DAB029006906E
:101F2000079104910848094953F8042B059100686A
:101F300002A9019302F096FE0022029B1A701CB0C7
:101F40005DF804EB03B07047000000200802FFFFBB
:101F50002DE9F0410F46904602F02CFC04460D4658
:101F6000B8F1000F11D0C7F30A53C3F16B03002B74
:101F70000BDD00241B0503F17F5505F540152246B6
:101F80002B46FEF7B9FA04460D4620462946BDE821
:101F9000F0810000000000002DE9F04F9B46002377
:101FA000A1B01C93A14B82461F680E46384617927B
:101FB000FEF7DEF84FF0000804464FF000091B96CC
:101FC0001B9B1A782B2A4CD03AD80D2A33D8082AD2
:101FD00033D8002A3DD000230C931B9D2B78302B47
:101FE00040F0AF806B7803F0DF03582B6CD10C9B73
:101FF000504601931CAB00938D4ACDF808B01DAB41
:102000001BA901F02FFD10F00706044605D0062E8F
:1020100029D1002301351B950C93179B002B40F011
:1020200096850C9BD3B1424609F1004310461946F0
:1020300021B0BDE8F08F202ACDD101331B93BFE73B
:102040002D2AC8D101220C925A1C1B925B78002BBE
:10205000C3D1179B1B96002B40F0778542464B4619
:10206000E4E70022EFE71C9A3AB135211EA802F0FE
:10207000A5FC50461C9902F06DF8013E052E07D8CC
:10208000DFE806F00E0B181D0E034FF00009C846DE
:102090002107C2D549F00049BFE7DDE91E89F7E70E
:1020A0001D9ADDE91E8302F2334223F4801343EAD2
:1020B0000259EDE74FF00008DFF87891E8E76FF09C
:1020C00000494FF0FF38E3E71B9B5A1C1B925B78DB
:1020D000302BF9D0002BA0D0012307931B9B0A22A1
:1020E000089300239B46CDE905331B980578A5F19D
:1020F0003003D9B2092926D92246394602F0C8FE52
:10210000002832D000202B465C4602460490652B06
:1021100001D0452B13D11CB9079B034399D0002450
:102120001B9E731C1B9373782B2B78D02D2B7BD08D
:102130000027A3F13001092940F282801B96002577
:102140009EE00023C9E7BBF1080FD5BF06990599AA
:1021500002FB013302FB013300F10100D4BF0693FF
:1021600005930BF1010B1B90BFE71B9B1A191B92E8
:102170001B5DBBF1000F36D05C460490A3F130022A
:10218000092A12D90122C2E71B9B01305A1C1B925B
:102190005B78302BF8D0A3F13102082A00F2DC84FE
:1021A0000490002004461B9A0892303B00F1010283
:1021B00013D0049905191144049122460A21AA4218
:1021C00013D12218082A04F1010404441BDC0A225A
:1021D000069902FB0133069300221B9B1046591CF3
:1021E0001B915B78CAE75846D3E7082A04DC069FB0
:1021F0004F4306970132E2E7571C102FDEBF059FC1
:102200004F430597F6E7102CDFBF0A22059902FB22
:1022100001330593E0E70023012204937CE70027C4
:10222000B31C1B93B37884E70127F9E7F05C00083F
:10223000A05A00080000F07F1B9B591C1B915B7883
:10224000302BF9D0A3F1310108293FF678AF4FF0D8
:102250000A0EA3F1300C1B9B09931B9B591C1B916D
:102260005B78A3F13005092D35D9099D491B082953
:1022700044F61F6502DC6545A8BF654607B16D429F
:10228000002C4CD1079901437FF4C7AE002A7FF49C
:10229000E0AE692B26D023DC492B23D04E2B7FF4D4
:1022A000D8AE9C491BA801F02BFE00283FF4D1AE0C
:1022B0001B9B1B78282B2CD197491EAA1BA801F029
:1022C00033FE052825D11F9BDDF8788043F0FF49B8
:1022D00049F4E009A1E60EFB0C3CACF1300CBCE784
:1022E0006E2BDCE78D491BA801F00AFE00283FF4A5
:1022F000B0AE1B9B8A49013B1BA81B9301F000FE5B
:1023000010B91B9B01331B934FF00008DFF820929C
:1023100083E6844802F0A6FD804689467DE6049B5C
:10232000BBF1000F08BFA346EB1A102C06982646F7
:102330000793A8BF1026FEF765F8092C804689464A
:1023400013DD794B03EBC60353E91223FEF7D4F8F0
:10235000804605988946FEF755F802460B464046EA
:102360004946FDF713FF804689460F2C36DC079B54
:10237000002B3FF452AE22DD162B09DC6A4C42469C
:1023800004EBC3044B46D4E90001FEF7B5F8C3E7FC
:10239000079AC4F12503934220DB634DC4F10F0477
:1023A00005EBC4014246D1E900014B46FEF7A4F813
:1023B000079B1C1B05EBC405D5E90023E5E7079B3C
:1023C00016330BDB049B584A5D1B02EBC5054046E8
:1023D000D5E900234946FEF7B9F99DE7079BA61BFF
:1023E0001E44002E71DD16F00F030AD04E494246FE
:1023F00001EBC301D1E900014B46FEF77DF88046B1
:10240000894636F00F0650D0B6F59A7F27DD4FF09B
:10241000000BCDF810B0CDF820B0CDF818B02223C5
:102420004FF00008DFF80891CAF80030089B002B35
:102430003FF4F3AD50461C9901F08CFE50460699CE
:1024400001F088FE5046049901F084FE5046089938
:1024500001F080FE5946504601F07CFEDDE5002388
:10246000404649461F463611012E21DC0BB18046FD
:1024700089462E4BA9F1547903EBC7074246D7E9A9
:1024800000014B46FEF738F8294B0A460B40294914
:1024900080468B42BBD8A1F580118B4286BF4FF09E
:1024A000FF38DFF8949002F15479002305937EE021
:1024B000F20707D51D4B03EBC703D3E90023FEF753
:1024C0001BF8012301377610CEE7EED0764216F0E6
:1024D0000F020AD0144B404603EBC2034946D3E92E
:1024E0000023FEF733F9804689463611DDD01F2ED2
:1024F00024DD4FF0000BCDF810B0CDF820B0CDF8B2
:1025000018B022234FF000084FF00009CAF800303D
:102510008CE700BF715A0008B45A0008695A0008D5
:10252000F45B0008B05E0008905D0008685D00087C
:102530000000F07F0000A07CFFFFEF7F16F010038B
:1025400018BF6A234046059349460023B24FF2075D
:1025500004D5D7E90023FDF7CFFF0123761007F15B
:102560000807F4D10BB180468946059BBBB1C9F37E
:102570000A53C3F16B03002B494610DD1F2B40F3B8
:102580002B81342BD8BF4FF0FF324FF00008CFBF64
:102590004FF05C79203B02FA03F303EA01090022C1
:1025A000002340464946FEF70FFA0028A1D1069BBA
:1025B0005A46009350462346089901F037FE08908A
:1025C00000283FF424AF049B4FF0000B5D1B079BDA
:1025D000CDF810B0002BB4BF2B4600230E93079B01
:1025E00023EAE3731693089B5046596801F072FD85
:1025F000069000283FF413AF089B0C301A6903F1D2
:102600000C010232920001F057FD1EAB01931DAB8D
:10261000009342464B465046CDE90A8902F044F900
:102620001C9000283FF4FBAE0121504601F096FEBD
:102630000346049000283FF4F2AE1D9D1E9A002D23
:10264000ABBF0E9B169BEE185C1B059BA8BF169C90
:10265000A5EB03051544714B05F1FF35B8BF0E9E80
:102660009D42C2F1360280F2C9805B1B1F2B4FF0E6
:102670000107A2EB030200F3B680002507FA03F37B
:102680000F93B718059BBE4214441C443346A8BFA1
:102690003B46A342A8BF2346002BC2BFFF1AE41A41
:1026A000F61A0E9B002B17DD1A465046049901F0CE
:1026B0000FFF049000283FF4B2AE01461C9A50462A
:1026C00001F062FE099000283FF4A9AE50461C9923
:1026D00001F040FD099B1C93002F00F39380079BA2
:1026E000002B08DD5046169A069901F0F1FE06907F
:1026F00000283FF494AE002C08DD2246504606998F
:1027000001F040FF069000283FF489AE002E08DD5E
:1027100032465046049901F035FF049000283FF4FA
:102720007EAE5046069A1C9901F0B4FF83460028FD
:102730003FF475AE0024C3680499C4600D9301F0A2
:102740008DFFA04270DA0D9B53EA080340F096809B
:10275000C9F31303002B40F0918029F000431B0DB7
:102760001B05B3F1D66F40F28980DBF8143023B932
:10277000DBF81030012B40F381805946012250468E
:1027800001F000FF0499834601F068FF002875DD21
:1027900005994B46224A002900F0918002EA09017E
:1027A000B1F1D66F00F38B80B1F15C7F7FF7A9AEFA
:1027B00000231C4A4046CDE914324946DDE9142382
:1027C000FDF79AFE0B46034308BF22238046894645
:1027D00008BFCAF800302DE64FF0FF3202FA03F3CB
:1027E00003EA0808DBE6C5F17F4505F57F0505F539
:1027F0007B45E23507FA05F50F9742E701230025EF
:102800000F933EE73A4650461C9901F0BBFE1C90E0
:1028100000287FF464AF02E6C85A000802FCFFFFFC
:102820000000F07F00005039CDF8249066D10D9A59
:10283000C9F313035AB39C4A93422CD1059B4046DB
:1028400003B34B46994A4FF0FF311A40B2F1D46FAF
:102850001BD8120DC2F16B0301FA03F398421AD18F
:10286000934B099A9A4202D101303FF4D8AD4FF010
:1028700000088E4B099A1A4002F58019059B002B1F
:1028800096D1D7E54FF0FF33E8E70B46E6E753EA8A
:1028900008033FF47DAFE5B1099B1D42EED00D9BCF
:1028A00040464946059AC3B1FFF752FB02460B4624
:1028B000DDE90A01FDF76AFC80468946DEE7134040
:1028C000A3F580136FEA13594FF0FF386FEA0959E7
:1028D000D4E70F9B13EA080FE0E7FFF739FB024646
:1028E0000B46DDE90A01FDF74FFC0022002380467C
:1028F0008946FEF769F80028C0D002E658460499D8
:1029000002F02EF800224FF0804306460F46FEF7F5
:102910006FF8002875D00D9B002B47D00026654F1F
:10292000644D099B23F000431B0D1B050F930F9A69
:10293000614B9A4240F0C880DDE90A23CDE91423B7
:10294000099B4046A3F15479494601F033FF024602
:102950000B4630463946FDF7CFFD42464B46FDF764
:1029600015FC0B465149554A1940914280465ED9A3
:102970000B9B02F15472934203D10A9B01333FF443
:102980004EAD4FF0FF38DFF8289150461C9901F00A
:10299000E1FB5046069901F0DDFB5046049901F039
:1029A000D9FB5946504601F0D5FB1CE6B8F1000FA3
:1029B00019D1099BC3F31303E3B90022304639460A
:1029C0003C4BFEF70BF8C8B90022304639463C4B69
:1029D000FDF792FD04460D4605F100431894199346
:1029E000DDE918679DE7B8F1010F03D1099B002BC2
:1029F0003FF487AD00260024324F91E70D9C304D07
:102A0000EAE72F4B002230463946FDF775FD0D9B56
:102A100004460D4633B901F1004310901193DDE9EE
:102A200010677EE702460B46CDE91023F7E703F176
:102A30005479059B002BA8D129F000430F9A1B0D58
:102A40001B059A42A1D120462946FEF79DF8FDF7C5
:102A500025FD02460B4620462946FDF795FB0D9ABB
:102A6000C9F3130343EA0803134304460D4666D033
:102A700009A3D3E90023FDF7B1FF00287FF4DAAC06
:102A800007A3D3E9002320462946FDF7C5FF002808
:102A90003FF47BAFCEE400BF9535A094FFFFDF3F4E
:102AA00035E5AF350000E03FFFFF0F000000F07F8D
:102AB000FFFFEF7F0000F03F0000E07FFFFF9F7C03
:102AC0000000E03F0000F0BF059B13B30F9BB3F184
:102AD000D46F1ED826A3D3E9002320462946FDF74C
:102AE00087FF90B129462046FDF7DEFF012838BF59
:102AF0000120FDF787FC0D9B04460D46D3B901F17B
:102B0000004312901393DDE912670F9A07F1D66321
:102B10009F1ADDE90A0101F04DFE02460B463046E0
:102B20003946FDF7E9FCDDE90A23FDF72FFB804676
:102B300089467EE702460B46CDE91223E3E70EA362
:102B4000D3E90023FDF74AFFA1E700230C931B9B69
:102B5000179A1360FFF765BA652B3FF45CAB452B02
:102B60003FF459AB0122FFF78DBB00BFAFF30080EC
:102B70000000C0FFFFFFDF419535A094FFFFCF3F6E
:102B8000014BFFF709BA00BF68000020012B2DE9B7
:102B9000F047864601D0242B06D9FEF711FB1623F9
:102BA00003600020BDE8F0878C463A4E60461CF872
:102BB000014BA55D15F00805F8D12D2C33D14FF050
:102BC00001089CF8004000F1020C002B5DD0102B96
:102BD0000CD1302C0AD19CF8000000F0DF005828FE
:102BE0004ED110239CF801400CF1020C002508F195
:102BF0000047013FB7FBF3F9284603FB197AA4F11C
:102C00003006092E18D83446A34224DD002D1FDBE0
:102C100081451DD301D1A2451ADB012500FB0340EC
:102C20001CF8014BEBE72B2C08BF9CF80040A84692
:102C300008BF00F1020CC8E7A4F14106192E01D823
:102C4000373CE1E7A4F16106192E04D8573CDBE7D5
:102C50004FF0FF35E4E7002D08DA22233846CEF89E
:102C60000030002A9ED00CF1FF3107E0B8F1000FD0
:102C700000D04042002A95D0002DF4D1116091E798
:102C80003024002BB2D10823B0E7302CA3D00A2384
:102C9000ACE700BFF15A0008FFF778BF2DE9F74F06
:102CA00003690C690746A342C0F28380013C00F12E
:102CB000140501F1140805EB8403019358F824303E
:102CC00055F8242001339A42B2FBF3F64FEA840B05
:102CD00008EB840932D34FF0000E4046AC46F24672
:102CE00050F8042B93B206FB03E3120C4FEA134E89
:102CF00006FB02E29BB2AAEB0303DCF800A04FEA5A
:102D0000124E1FFA8AFA53441FFA82FADCF80020A6
:102D10008145CAEB124202EB23429BB243EA0243D3
:102D20004FEA224A4CF8043BDAD255F80B302BB963
:102D3000019B043B9D421A462FD33C61384601F06B
:102D40008DFC002825DB28464FF0000C013658F892
:102D5000041BD0F800E08BB2ACEB03031FFA8EF239
:102D600013440A0CC2EB1E4202EB23429BB243EA1D
:102D70000243C1454FEA224C40F8043BE7D255F8E4
:102D8000242005EB840322B9043B9D421A460AD352
:102D90003C61304603B0BDE8F08F1268043B002A66
:102DA000CBD1013CC6E71268043B002AF0D1013CBC
:102DB000EBE70020EEE700002DE9F04F16461F4636
:102DC000446A99B00546CDE90467DDF8948074B98A
:102DD000102001F049F90246686220B9EA21AE4BA1
:102DE000AE4802F075F8C0E901440460C4606B6A43
:102DF000196851B15A68012393404A608B60284694
:102E000001F0A8F900226B6A1A603B1EAFBF0023D5
:102E1000012223F000430593A8BFC8F80030DDF875
:102E200014909F4BB8BFC8F8002033EA090319D1AA
:102E300042F20F73249A1360C9F31303334300F073
:102E40008085269B53B9974B22E0974B0893083314
:102E5000269A1360089819B0BDE8F08F914B08933B
:102E60000333F5E7DDE90434CDE90C34DDE90C0189
:102E700000220023FDF7A8FD804658B10123249AC3
:102E80001360269B002B00F0598588481860431E6C
:102E90000893DFE716AB019317AB00932846DDE9F3
:102EA0000C2301F001FDC9F30A548246002C7ED0A8
:102EB000DDE90C010D9BA4F2FF34C3F3130343F0CF
:102EC0007F5141F44011CDF84C800022784BFDF742
:102ED0005BF96BA3D3E90023FDF70EFB6AA3D3E9EB
:102EE0000023FDF753F9064620460F46FDF79AFAF0
:102EF00067A3D3E90023FDF7FFFA02460B463046ED
:102F00003946FDF743F906460F46FDF7A5FD0022B9
:102F10008146002330463946FDF760FD48B14846FA
:102F2000FDF780FA32463B46FDF74EFD08B909F140
:102F3000FF39B9F1160F57D8DDE90C015D4B03EBF2
:102F4000C903D3E90023FDF749FD00284ED0002333
:102F500009F1FF390F93169B1C1B631E099349BF90
:102F6000C4F1010300230693002354BF0693099381
:102F7000B9F1000F3CDB099BCDF838904B44099325
:102F800000230A93229B092B6CD8052BC4BF043B5A
:102F90002293229BC8BF0024A3F10203D8BF0124BF
:102FA000032B00F28B80DFE803F02D4F4D5BDDE952
:102FB00016431C4404F23243202BC3BFC3F1400329
:102FC00004F2124009FA03F3C3F12003C6BF26FA44
:102FD00000F0184306FA03F0FDF714FA0123A1F1FB
:102FE000F871013C139370E70123B3E70F90B2E748
:102FF000069BA3EB09030693C9F100030A93002380
:103000000E93BFE700230B93239B002B59DC4FF05B
:10301000010B5B46CDF808B0CDF88CB00022686A91
:103020004260042202F114069E4241684FD92846AC
:1030300001F050F8089000284DD102464FF4D571A8
:103040001D4BCDE60123DEE700230B93239B09EB09
:10305000030B0BF10103012B0293B8BF0123DDE742
:103060000123F2E7012400230B9422934FF0FF3B4E
:1030700000221223CDF808B02392CFE7AFF30080EF
:1030800061436F63A787D23FB3C8608B288AC63F6E
:10309000FB799F501344D33FFE5B0008155C00088A
:1030A0000000F07FFA5B0008F15B0008755A000829
:1030B0000000F83F905D0008745C000801230B934A
:1030C000D4E7DDF88CB05B46CDF808B0A6E7013157
:1030D00041605200A6E76B6A089A1A60029B0E2BA9
:1030E00000F2A880002C00F0A580B9F1000F34DDBB
:1030F0009A4A09F00F0302EBC30319F4807FD3E966
:103100000034CDE910344FEA291416D0DDE90C0162
:10311000934B0327D3E90823FDF718FBCDE90401FE
:1031200004F00F048E4E54B9DDE91023DDE90401EB
:10313000FDF70CFBCDE9040129E00227F2E7E107E6
:1031400008D5DDE91001D6E90023FDF7D5F9CDE971
:103150001001013764100836E5E700F0A580DDE9CD
:103160000C01C9F100047D4B04F00F0203EBC20314
:10317000D3E90023FDF7C0F902270023CDE90401BC
:10318000774E2411002C40F08480002BD2D10F9B6D
:10319000002B00F08B80DDE90434CDE91034DDE94B
:1031A000100100226F4BFDF719FC00287ED0029B16
:1031B000002B7BD0BBF1000F38DDDDE910010022D0
:1031C000694BFDF799F95C46CDE9040109F1FF3837
:1031D00001373846FDF726F9DDE90423FDF78CF9C0
:1031E0000022624BFCF7D2FFA1F15076CDE910012D
:1031F0001196002C5DD1DDE9040100225C4BFCF747
:10320000C3FF02460B46CDE904233346109AFDF76F
:1032100003FC002840F09E82DDE90401109A06F1CB
:103220000043FDF7DBFB002840F09282DDE90C341F
:10323000CDE90434179B002BC0F25381B9F10E0F76
:1032400000F34F81454B03EBC903D3E90034CDE9CB
:103250000634239B002B80F2DB80029B002B00F3C3
:10326000D78040F07482DDE906010022404BFDF773
:1032700043F9DDE90423FDF7C5FB029C264600283F
:1032800040F04A823123089F09F1010907F8013B08
:1032900046E2E20705D5D6E90023FDF72DF9012323
:1032A0000137641008366DE7022770E7C846029CB4
:1032B0008FE70899294B214412910B9903EBC40322
:1032C000DDE9106753E90223002955D00020294980
:1032D000FDF73CFA3B463246FCF756FFCDE91001BC
:1032E000089FDDE90401FDF7B7FB0446FDF79AF8F6
:1032F00002460B46DDE90401FCF746FF02460B4699
:103300003034CDE90423DDE9102307F8014BFDF744
:1033100065FB002874D1DDE9042300201149FCF786
:1033200033FFDDE91023FDF759FB002840F0B6809C
:10333000129B9F423FF47AAFDDE9100100220A4B55
:10334000FDF7DAF80022CDE91001DDE90401064BB2
:10335000FDF7D2F8CDE90401C3E700BF905D000896
:10336000685D00080000F03F0000244000001C40A1
:10337000000014400000E03F30463946FDF7BCF83D
:10338000129BCDE91001089C1493DDE90401FDF7BF
:1033900063FB1590FDF746F802460B46DDE9040194
:1033A000FCF7F2FE159B0646303304F8013B129BF6
:1033B0000F469C424FF0000224D1DDE91001B34BCF
:1033C000FCF7E4FE02460B4630463946FDF724FB87
:1033D000002862D1DDE910230020AC49FCF7D4FEBF
:1033E00002460B4630463946FDF7F8FA00283FF40E
:1033F0001DAF149F7B1E149317F8013C302BF8D09F
:10340000C1463AE0A24BFDF777F8CDE90401BCE7ED
:10341000089FDDE90623DDE90401FDF797F9FDF7D3
:103420001BFB0446FCF7FEFFDDE90623FDF764F80D
:1034300004F130060B460246DDE90401FCF7A4FE68
:1034400007F8016B089E029BBE1BB3423AD10246AD
:103450000B46FCF79BFE02460B46CDE90223DDE955
:103460000623FDF7D9FA58BBDDE90623DDE90201A1
:10347000FDF7AAFA08B1E10722D42846514600F028
:1034800069FE00233B70249B09F101001860269B14
:10349000002B3FF4DFAC1F60DCE427463B461F46B1
:1034A00013F8012D392A07D1089A9A42F7D1302210
:1034B000089908F101080A701A7801321A709FE71A
:1034C000C846EBE70022724BFDF716F802460B46A2
:1034D000CDE9042300220023FDF776FA002898D0D6
:1034E000CBE70B9A002A00F0CD80229A012A00F344
:1034F000AF80139A002A00F0A78003F233430A9C9E
:10350000069F069A01211A440692099A28461A44EF
:10351000099200F023FF0646002F0CDD099B002BCB
:1035200009DDBB42A8BF3B46069AFF1AD21A069293
:10353000099AD31A09930A9BF3B10B9B002B00F055
:10354000A980002C10DD31462246284600F0C0FF3D
:10355000524601460646284600F016FF8046514670
:10356000284600F0F7FDC2460A9B1A1B04D05146BC
:10357000284600F0ADFF82460121284600F0EEFE0D
:103580000E9B0446002B40F387801A4601462846CE
:1035900000F09EFF229B0446012B40F380804FF0F9
:1035A0000008236904EB8303186900F089FEC0F169
:1035B0002000099B184410F01F0000F09280C0F119
:1035C0002003042B40F38A80C0F11C00069B0744B3
:1035D00003440693099B03440993069B002B05DDD6
:1035E00051461A46284600F0CDFF8246099B002B23
:1035F00005DD21461A46284600F0C4FF04460F9B0D
:10360000002B70D02146504601F028F800286ADAD5
:10361000002351460A22284600F0BEFD0B9B82463D
:1036200009F1FF39002B00F09381314600230A2273
:10363000284600F0B1FDBBF1000F064600F3938071
:10364000229B022B57DC8EE0169BC3F1360356E714
:10365000029B5C1E0A9BA342B7BF0A9B1C1BE21A7B
:103660000E9BBEBF0A949B180E93029BB8BF00240A
:10367000002BBBBF069B029A069F9F1AACBF029B02
:1036800000233EE70A9C069F0B9E45E70000E03FB3
:10369000000024400A9A6AE7229B012B19DC049B54
:1036A000BBB9059BC3F313039BB9059B23F00043F0
:1036B0001B0D1B0583B14FF00108069B01330693D8
:1036C000099B013309930E9B002B7FF46AAF012005
:1036D0006FE74FF00008F6E79846F4E73FF47DAF58
:1036E00018461C3072E7029B002B36DC229B022B13
:1036F00033DDDDF808B0BBF1000F0DD121465B468C
:103700000522284600F048FD01460446504600F0D8
:10371000A5FF00283FF7B6AD239B089F6FEA03097A
:103720004FF000082146284600F014FD002E3FF41B
:10373000A4AEB8F1000F05D0B04503D041462846ED
:1037400000F008FD3146284600F004FD95E600240F
:103750002646E1E7C146264694E50B9BDDF808B016
:10376000002B00F0FC80002F05DD31463A4628464C
:1037700000F008FF0646B8F1000F5CD028467168DB
:1037800000F0A8FC074628B9024640F2EA217E4B29
:10379000FFF726BB326906F10C01023292000C30B1
:1037A00000F08AFC01223946284600F0EBFEB046C4
:1037B0000646089B01330293089B5B440A93049BD3
:1037C00003F001030993029B2146504603F1FF3B9E
:1037D000FFF764FA034641463033049050460B939A
:1037E00000F03CFF324606902146284600F052FF8A
:1037F000C26807460B9B02BB0146504600F02EFFF5
:1038000002460B9B39462846CDE90B3200F0A2FC5C
:10381000229B0C9A029F43EA0201099B0B430B9BDC
:103820000DD1392B27D0069A002A01DD049B3133B4
:103830008BF8003076E73046B9E70122E2E70699D7
:10384000002904DB229801430998014320D1002A72
:10385000EEDD514601222846029300F093FE2146F8
:10386000824600F0FBFE0028029B02DCE0D1DA0772
:10387000DED5392BDAD139238BF800303B461F4691
:1038800017F8012C013B392A50D001321A7049E750
:10389000002A03DD392BEED00133C9E7029A0A99D9
:1038A00002F8013C8A422AD0514600230A222846C7
:1038B00000F072FCB04582464FF000034FF00A0260
:1038C0004146284607D100F067FC80460646029B29
:1038D0000133029377E700F05FFC31468046002316
:1038E0000A22284600F058FC0646F0E7BBF1000F1C
:1038F000CCBF5F4601274FF00008089A1744514695
:1039000001222846029300F03DFE2146824600F047
:10391000A5FE0028B2DC02D1029BDB07AED43B46F9
:103920001F4613F8012D302AFAD0FBE6089A9A4276
:10393000A5D1312309F101091370F3E6134BFFF709
:10394000A7BA269B002B7FF480AA114BFFF7A0BAE1
:10395000BBF1000F03DC229B022B3FF7CCAE089F8C
:1039600021465046FFF79AF9089A00F1300307F80C
:10397000013BBA1A9345B9DD514600230A22284675
:1039800000F00AFC8246EBE7745C0008745A0008F9
:10399000F15B000803692DE9F043B3EB611F00F10F
:1039A00014044FEA611246DD11F01F0104EB830697
:1039B00004EB82050CD1294600F11007B14235D342
:1039C0009B1A9B00EA1E964238BF0023234415E051
:1039D000A14654F82270C1F12008CF4005F1040E31
:1039E0007645F44616D89B1A9A00043A0135AE4241
:1039F00038BF0022A318A75007B10433A342A3EB9A
:103A0000040208BF00234FEAA202026108BF43611B
:103A1000BDE8F083DCF800C00CFA08FC4CEA0707AC
:103A200049F8047B5EF8047BCF40D9E751F804CB1A
:103A300047F804CFC2E72346E0E7A0F13003092BA3
:103A400002D82038C0B27047A0F16103052B01D81D
:103A50004738F7E7A0F14103052B01D82738F1E7F4
:103A6000002070472DE9F04F8BB00693B94B0290C0
:103A70001B688B46184690460393FCF779FB8246F9
:103A8000039BDBF80020034413F8013C0793931CCD
:103A9000C2F1FF2202F57F02FE32D1181F4613F851
:103AA000010B01913028F8D0FFF7C7FF044600282A
:103AB0003AD152463846039901F0EAF90546002802
:103AC00066D117F80A0007EB0A06FFF7B6FF0028D1
:103AD00060D0334618781F46302803F10103F9D02F
:103AE000FFF7ABFF0123B0FA80F435466409019378
:103AF0003A46164630780132FFF79FFF0028F8D18A
:103B000052463046039901F0C3F980B94DB906EB2E
:103B10000A052A46164630780132FFF78EFF002844
:103B2000F8D1AD1BAD0004E000242546E0E7002DF0
:103B3000F7D1337803F0DF03502B39D173782B2B77
:103B40002AD02D2B2CD04FF00009711C0878FFF7DC
:103B500074FF431EDBB2182B2AD8A0F1100211F813
:103B6000010FFFF76AFF431EDBB2182B1BD9B9F117
:103B7000000F00D052421544CBF80010D4B1019B85
:103B8000002B14BF0027062738460BB0BDE8F08F86
:103B90003E4625460124CCE74FF00009B11CD5E78D
:103BA0004FF00109FAE70A2303FB0202103AD6E7B5
:103BB0003146E1E72146F31B013B072B0ADC029863
:103BC00000F088FA044640B90246DE21624B6348A1
:103BD00001F07EF901315B10EFE74FF0000B00F1CF
:103BE0001409CAF10103CDF81090CDF804B0089380
:103BF000B7423FD3049F019B47F8043BA7EB09075B
:103C0000BF102761184600F05BFB7F01D8F8006009
:103C10003F1AB74262DDBF1B3946204600F0F1FE75
:103C20008246A8B14FF0010A7B1E591159F82110A4
:103C300003F01F020AFA02F20A4209D0534505DDD9
:103C40002046B91E00F0DDFE002844D14FF0020AE4
:103C500039462046FFF79EFE3D44D8F80830AB4277
:103C60004ADA2146029800F075FA0023149AA32735
:103C7000136089E7731E079A059316F8013C934277
:103C800019D0BBF1200F07D1049B019A43F8042BF4
:103C9000049300239B46019316F8010CFFF7CDFE19
:103CA000019B00F00F0000FA0BF0034301930BF1AE
:103CB000040B059B0DE0059B089A1344BB42E0D31F
:103CC000184652460399099301F0E2F8099B00282F
:103CD000D7D11E468CE74FF0030AB9E709DAF71B84
:103CE00021463A46029800F04DFC0446ED1B00F1D7
:103CF00014094FF0000AB0E7D8F80400A84271DDBB
:103D0000451BAE4234DCD8F80C30022B28D0032BF4
:103D10002AD0012B15D1AE4213D1012E0BD1D8F8E8
:103D20000430069A6227136001232361C9F800302A
:103D3000149B1C6028E72046711E00F062FE0028DC
:103D4000EDD12146029800F005FA0023149A50277D
:103D5000136019E7F05C0008745C0008855C0008DB
:103D6000159B002BEDD1DAE7159B002BD7D1E8E7A7
:103D70006F1EBAF1000F32D127B13946204600F04C
:103D800040FE824601217B1159F8233007F01F07BE
:103D900001FA07F71F424FF002072946204618BFD5
:103DA0004AF0020A761BFFF7F5FDD8F80450BAF185
:103DB000000F48D0D8F80C30022B15D0032B17D0A9
:103DC000012B09D11AF0020F06D0D9F800004AEAF7
:103DD000000A1AF0010F0ED147F0100733E04FF040
:103DE000010ACFE70127E2E7159BC3F10103159311
:103DF000159B002BF0D04FF0000CD4F810B004F15C
:103E000014034FEA8B0A03EB8B01184653F8042B7B
:103E1000B2F1FF3F1CD001320260022F04F1140303
:103E20003DD1D8F80020013AB2420AD101227111E5
:103E300053F8213006F01F0602FA06F61E4218BF9C
:103E4000174647F02007149B1C60069B1D609BE6ED
:103E5000994243F804CCD8D8A3689B4517DB616826
:103E60000298013100F036F9814618B902468421E2
:103E7000194BACE6226904F10C01023292000C30BD
:103E800000F01AF92146029800F064F94C462369C3
:103E90005A1C2261012204EB83035A61BDE72269A7
:103EA0005A450BDD01212046FFF774FDD8F8083094
:103EB0000135AB42FFF6D5AE0127C2E716F01F066B
:103EC000FAD09A445AF8040C00F0FAF9C6F1200628
:103ED000B042E7DBF0E700BF745C0008C2F1080203
:103EE000920070B5C2F120064368046803FA06F533
:103EF0002C43D340046040F8043F8842F4D370BDA3
:103F000030B50368013311F8014B14B90360012087
:103F100030BD13F8012BA2F14105192D98BF2032B5
:103F2000A242F0D00020F3E72DE9F04F00250B6806
:103F300082465E1102EB860613F01F0318BF04369B
:103F4000371F9046B9463C46AB4687B0016801939F
:103F500046F8045C02954A784B1C039342B3104622
:103F600005910492FFF769FD00284FD1049A059945
:103F7000202A18D8029B9B4513DD4C4506D2072DFD
:103F800004DC2A4649462046FFF7A8FF444550D99D
:103F90000023A4F1040944F8043C1D464C46CDF826
:103FA00008B00399D7E7292A56D10231CAF8001080
:103FB000BBF1000F50D04C4506D2072D04DC2A4639
:103FC00049462046FFF78AFF444534D92346A8F1E5
:103FD000040253F8041B9F4242F8041FF9D23B1B12
:103FE00023F0030304330134033EB44288BF0423A7
:103FF0000022434443F8042B9F42FBD23B681BB989
:10400000474527D101233B60052026E00135082DD7
:104010000BF1010B06DD4445C3D90023012544F80B
:10402000043C043C226800F00F0040EA02122260C7
:10403000B7E70825B5E7019B002BDFD04FF0FF3233
:10404000C3F1200322FA03F356F8042C1A4046F871
:10405000042CD3E7043FD1E7042007B0BDE8F08F7C
:104060000048704758010020024B0146186800F0D4
:1040700043BD00BF0000002082B001B901A942B1D8
:104080004BB113780B601278101E18BF012002B0DC
:1040900070471046FBE76FF00100F8E7034610B5E4
:1040A000C9B202449342184601D1002003E00478CB
:1040B00001338C42F6D110BD0A44914200F1FF3326
:1040C00000D1704710B511F8014B914203F8014F30
:1040D000F9D110BD70B5466A04460D4676B9102078
:1040E000FFF7C2FF0246606220B96621174B1848ED
:1040F00000F0EEFEC0E901660660C660666AF3681D
:1041000083B1636ADB6853F82500B8B9012101FA6D
:1041100005F6721D2046920000F094FC60B1C0E9E3
:1041200001560EE021220421204600F08BFC636A38
:10413000F060DB68002BE4D1002070BD026843F81A
:1041400025200023C0E90333F7E700BFFE5B00082A
:10415000045D000870B5466A05460C4676B9102025
:10416000FFF782FF0246686220B98A21084B09489E
:1041700000F0AEFEC0E901660660C6603CB16B6A45
:104180006268DB6853F82210216043F8224070BD5A
:10419000FE5B0008045D00082DE9F04198460C46DE
:1041A00000230E69074601F1140005680133A9B226
:1041B00002FB01812D0C4FEA114C02FB05C589B2AF
:1041C00001EB05419E424FEA154840F8041BECDC28
:1041D000B8F1000F22D0A368B34219DC61683846F9
:1041E0000131FFF777FF054628B90246B5210D4B8F
:1041F0000D4800F06DFE226904F10C0102329200BC
:104200000C30FFF759FF21463846FFF7A3FF2C4635
:1042100004EB86030136C3F8148026612046BDE80E
:10422000F08100BF745C0008045D00082DE9F843CC
:10423000154609221F4608330C4693FBF2F3064647
:10424000012200219A4209DB3046FFF743FF40B9C3
:104250000246CE21184B194800F03AFE52000131B7
:10426000F0E7089B092D43614FF00103036116DD60
:1042700004F10909C8462C4418F8013B01460A22FA
:104280003046303BFFF788FFA045F5D1A5F1080483
:104290004C442D1B6319BB4204DBBDE8F8830925A0
:1042A0000A34F6E714F8013B01460A223046303B57
:1042B000FFF772FFEEE700BF745C0008045D0008C2
:1042C000020C12040346CAB90304102013F07F4FF6
:1042D00004BF1B02083013F0704F04BF1B010430F1
:1042E00013F0404F04BF9B000230002B05DB13F09E
:1042F000804F00F1010008BF202070470020E5E753
:104300000368024613F007000BD0D90722D49807A0
:1043100049BF5B089B08012013605CBF022013604B
:10432000704799B209B910201B0C13F0FF0F04BF9E
:104330001B0A0830190704BF1B090430990704BF82
:104340009B080230D90703D45B0800F1010003D0B9
:1043500013607047002070472020704710B50C464E
:104360000121FFF7B7FE024628B94FF4A071044BB4
:10437000044800F0ADFD01234461036110BD00BF9E
:10438000745C0008045D00082DE9F04F14460A69CA
:1043900023690D469A42BEBF0B4625461C46D5F8FA
:1043A00010A0D4F81090AB6869680AEB0907BB420B
:1043B00085B0B8BF0131FFF78DFE30B9024640F23B
:1043C0005D11414B414800F083FD00F11406334676
:1043D000002206EB870843451ED305F1140C04F1B7
:1043E00014030CEB8A0C03EB89020292ACEB05027E
:1043F000153A22F00302043205F115018C4538BF4D
:1044000004220192029A03939A4208D8002F55DCA5
:10441000076105B0BDE8F08F43F8042BDBE7B3F884
:1044200000A0BAF1000F20D0B146002205F1140E11
:104430005EF8044BD9F800B0A1B21FFA8BFB0AFB5F
:1044400001B11144D9F80020240C120C0AFB0424F9
:1044500004EB114489B241EA0441F4454FEA1442A5
:1044600049F8041BE4D801997250039A0433B2F856
:104470000290B9F1000F1FD0B6464FF0000A346821
:1044800005F114010A88BEF802B0A4B209FB02B219
:10449000924444EA0A444EF8044B51F8044BBEF8E7
:1044A0000020240C09FB04248C4504EB1A444FEA39
:1044B000144AE7D8019AB4500436A3E758F8043DEB
:1044C000002BA5D1013FA1E7745C0008045D000842
:1044D0002DE9F843154612F0030206460F4607D0B1
:1044E000254C013A002354F82220FFF755FE0746D9
:1044F000AD103DD0746A7CB91020FFF7B5FD0246BF
:10450000706228B94FF4D7711C4B1D4800F0E0FCD5
:10451000C0E901440460C460D6F82480D8F808409B
:104520004CB940F271213046FFF718FF00230446D2
:10453000C8F8080003604FF00009EB070AD53946B8
:1045400022463046FFF720FF804639463046FFF7C7
:1045500001FE47466D100BD0206838B9224621462F
:104560003046FFF711FF2060C0F800900446E4E7F2
:104570003846BDE8F88300BF585E0008FE5B0008BF
:10458000045D00082DE9F0470C4607469146236973
:10459000496803EB6218A3684FEA621A08F1010642
:1045A000B3420BDB3846FFF795FD054648B9024696
:1045B00040F2D911274B284800F08AFC01315B00FA
:1045C000EEE7002300F1140100F1100218465345F4
:1045D00033DB20692AEAEA7A04F1140319F01F098F
:1045E00001EB8A0103EB800C2BD08A460022C9F133
:1045F000200E186800FA09F002434AF8042B53F819
:10460000042B9C4522FA0EF2F3D8ACEB0403153BC5
:1046100023F00303043304F11500844538BF042359
:10462000CA500AB108F10206013E384621462E6101
:10463000FFF790FD2846BDE8F08742F8040F0133EC
:10464000C5E7043953F8042B9C4541F8042FF9D8E9
:10465000EAE700BF745C0008045D000803460A69CD
:10466000006930B5801A0DD11433143103EB820484
:1046700001EB820154F8045D51F8042D954202D0FB
:1046800004D3012030BDA342F4D3FBE74FF0FF3049
:10469000F8E700002DE9F84F0C4606461146204683
:1046A0009246FFF7DBFF051E11D129463046FFF782
:1046B00011FD024628B940F232213C4B3C4800F043
:1046C00007FC0123C0E904351046BDE8F88FA4BFFC
:1046D0005346A2463046DAF80410A6BF1C46002511
:1046E0000125FFF7F7FC024618B94FF410712F4B64
:1046F000E4E700F11408DAF81070C5604FF0000C20
:104700000AF114050AF11000C246266904F11409E1
:1047100005EB870E09EB860650F804BF59F8043BF9
:104720001FFA8BF161441FFA83FC1B0CA1EB0C01F7
:10473000C3EB1B4303EB214389B24FEA234C4E45A5
:1047400041EA03434AF8043BE6D8331B153B23F008
:10475000030315340433A64238BF04231D444344E5
:104760001E462C4674450ED30EF10301491B21F061
:104770000301033DAE4538BF0021194451F8043D03
:104780008BB11761A0E754F8048B1FFA88F16144DC
:10479000081400EB184089B241EA00414FEA204C6E
:1047A00046F8041BDEE7013FE8E700BF745C000841
:1047B000045D0008114B0B40A3F15073002B02DD88
:1047C0000020194670475B42B3F1A07F4FF0000014
:1047D0004FF000014FEA235204DA4FF4002343FA6A
:1047E00002F17047A2F114031E2BD6BF4FF0004216
:1047F000012322FA03F31846704700BF0000F07F40
:104800002DE9F843076900F1140909EB870757F808
:10481000046CA7F104083046FFF752FDC0F12003F5
:104820000A280B601F4917DCC14528BF0022C0F1D0
:104830000B0C26FA0CF338BF57F8082C43EA010595
:1048400000F1150306FA03F322FA0CF243EA02041C
:1048500020462946BDE8F883C1452EBF002257F8FF
:10486000082CA7F10808B0F10B0316D0C3F12007FC
:1048700022FA07F1C84506FA03F646EA010694BF94
:10488000002158F8041C46F07F5502FA03F0F94065
:1048900045F4401540EA0104DAE7144646EA01050A
:1048A000D6E700BF0000F03F2DE9F3410121DDE92B
:1048B000087690461D46FFF70DFC044630B90246C7
:1048C00040F20A31244B254800F002FBC5F31303E4
:1048D000C5F30A552DBB0193B8F1000326D06846F5
:1048E0000093FFF70DFD0099F0B1019AC0F120038C
:1048F00002FA03F30B43C24063610192019B002B58
:1049000014BF02210121A3612161C5B1A5F2334584
:104910000544C0F135003D603060204602B0BDE87E
:10492000F08143F48013D6E76161E7E701A8FFF760
:10493000E7FC0121019B216163612030E5E704EB85
:104940008103A0F2324038601869FFF7B9FCC0EB70
:1049500041113160E1E700BF745C0008045D0008AC
:104960002DE9F74F884669468146FFF749FF0F4614
:1049700004460D46404601A9FFF742FFD9F8103022
:10498000D8F810208B46A3EB020CDDE900329B1A0D
:1049900003EB4C13002BD5BF0A462A46C3EB033367
:1049A00002EB0357D8BF02EB035B5B460246394676
:1049B0002046FBF7CBFE03B0BDE8F08F013970B5A0
:1049C00049111469013102F1140300EB810103EB79
:1049D0008404051FA3420CD3A31A113B23F0030345
:1049E0001132A24288BF002318440023884205D315
:1049F00070BD53F8046B45F8046FEBE740F8043BD7
:104A0000F4E700F1140200694B11984210B511DB74
:104A10000ADD11F01F0107D052F8234024FA01F0FB
:104A200000FA01F18C420BD102EB8303934203D8CD
:104A3000002010BD0346F7E753F8041D0029F5D008
:104A40000120F6E738B502FB01F5294600F054F8DD
:104A5000044618B12A460021FCF7DCFB204638BD8D
:104A600038B50546002943D051F8043C0C1F002BF3
:104A7000B8BFE41800F076FA1E4A1368104633B93E
:104A8000636014602846BDE8384000F071BAA34264
:104A90000AD921686218934201BF1A685B685218EC
:104AA000226063600460EDE71A465B680BB1A342C5
:104AB000FAD911685018A0420BD12068014450184F
:104AC00083421160DED118685B6801441160536055
:104AD000D8E702D90C232B60D4E7206821188B4239
:104AE00001BF19685B680918216063605460C9E7F9
:104AF00038BD00BFFC010020F8B5CD1C25F0030532
:104B000008350C2D38BF0C25002D064601DBA942C7
:104B100003D90C2333600020F8BD00F023FA2149AB
:104B20000A6814469CB9204F3B6823B92146304699
:104B300000F09EF938602946304600F099F9431C90
:104B400023D10C233046336000F012FAE3E72368E8
:104B50005B1B17D40B2B03D923601C44256004E096
:104B60006368A2420CBF0B605360304600F000FA4D
:104B700004F10B00231D20F00700C21ACCD01B1A31
:104B8000A350C9E722466468CCE7C41C24F00304A0
:104B9000A042E3D0211A304600F06AF90130DDD19D
:104BA000CFE700BFFC010020000200202DE9F04704
:104BB0008E6882469E420C4690461F4638D88A89A7
:104BC00012F4906F32D0256809690133A5EB010911
:104BD00065694B4405EB450505EBD5756D109D42A8
:104BE00038BF1D46530531D52946FFF785FF0646D8
:104BF00050B90C234FF0FF30CAF80030A38943F0BE
:104C00004003A381BDE8F0874A462169FFF754FAC3
:104C1000A38923F4906343F08003A38126614E446B
:104C200026603E466561A5EB0905A560BE4200D938
:104C30003E4632464146206800F07AF9A368226871
:104C40009B1B32440020A3602260DBE72A4600F071
:104C500095F906460028E1D150462169FFF700FF8B
:104C6000C7E700002DE9F04F98468B8907461B06E1
:104C70000D4614469DB00ED50B6963B94021FFF770
:104C80003BFF2860286120B90C233B604FF0FF30C8
:104C9000D1E040236B610023099320238DF8293054
:104CA00030234FF00109CDF80C80DFF8A4818DF896
:104CB0002A3023469A4613F8012B0AB1252AF9D146
:104CC000BAEB040B0BD05B46224629463846FFF769
:104CD0006DFF013000F0AA80099A5A4409929AF8AF
:104CE0000030002B00F0A28000234FF0FF32CDE90E
:104CF00005230AF1010A049307938DF853301A93A0
:104D00005446052214F8011B5148FFF7C7F9049ACD
:104D1000D8B9D00644BF20238DF85330110744BFC3
:104D20002B238DF853309AF800302A2B15D0544697
:104D300000204FF00A0C079A214611F8013B303B46
:104D4000092B4ED9B0B1079214E0A0EB080309FA81
:104D500003F31343A2460493D2E7039B191D1B6878
:104D60000391002BBBBF5B4242F002020793079303
:104D7000B8BF049223782E2B0CD163782A2B35D11F
:104D8000039B02341A1D1B680392002BB8BF4FF01F
:104D9000FF330593DFF8C8A0032250462178FFF7C0
:104DA0007DF940B14023A0EB0A0003FA00F0049B18
:104DB00001340343049314F8011B062225488DF89F
:104DC0002810FFF76BF9002838D0234B1BBB039B3F
:104DD000073323F0070308330393099B33440993F4
:104DE00067E70C4601200CFB0232A5E700234FF0D9
:104DF0000A0C194601340593204610F8012B303A6D
:104E0000092A03D9002BC5D00591C3E70446012325
:104E10000CFB0121F0E703AB00932A4638460F4B09
:104E200004A9FCF79DFA421C0646D6D1AB895B0665
:104E30003FF52CAF09981DB0BDE8F08F03AB009390
:104E40002A463846054B04A9FCF726FDEBE700BFD0
:104E5000645E00086E5E000861130008AD4B000838
:104E60006A5E000800200149704700BF0000F87F1B
:104E700038B50023054D044608462B60FCF740F981
:104E8000431C02D12B6803B1236038BD040300200A
:104E900010B56AB10139841810F8013B11F8012FDF
:104EA000934203D1A04201D0002BF5D1981A10BD36
:104EB0001046FCE70346084641B1FF2A04D98A227E
:104EC0004FF0FF301A60704701200A7070470000F1
:104ED0001FB514461A46094B05461B68D8684CB1E5
:104EE000074BCDE9013400912B46064900F00EF83E
:104EF00000F082FA044B1C46F3E700BF00000020DC
:104F0000755E0008825E0008B05E00080EB403B54E
:104F1000014603AB054853F8042B0068019300F0E9
:104F20007BF802B05DF804EB03B07047000000208E
:104F3000884210B501EB020402D98442234607D807
:104F4000431EA14208D011F8012B03F8012FF8E706
:104F5000014602448A4200D110BD13F8014D02F807
:104F6000014DF7E7014800F007BC00BF0C0300202B
:104F7000014800F002BC00BF0C030020F8B5074652
:104F800014460E4621B91146BDE8F840FFF7B4BDFE
:104F900022B9FFF765FD25462846F8BD00F052FC12
:104FA000A0420FD221463846FFF7A6FD054600284D
:104FB000F2D031462246FFF77FF831463846FFF7F8
:104FC0004FFDE9E73546E7E7936810B4013B002B56
:104FD000936007DA9469A34201DB0A2902D110BC6D
:104FE00000F04AB91368581C10601970084610BCCC
:104FF0007047F8B506460F461446D518AC4201D1A5
:10500000002007E03A46304614F8011BFFF7DCFFAA
:10501000431CF3D1F8BD00002DE9F04F0D461446B6
:10502000984606469DB018B183690BB900F006FB9F
:10503000894B9D421BD175686B6ED90705D4AB892E
:105040009A0502D4A86D00F097FBAB891B0701D528
:105050002B69EBB92946304600F060F9C0B16B6EA0
:10506000DC070ED54FF0FF301DB0BDE8F08F7B4B55
:105070009D4201D1B568DFE7794B9D4208BFF568D5
:10508000DAE7AB899805EDD4A86D00F076FBE9E787
:105090000023099320238DF8293030234FF0010994
:1050A000CDF80C80DFF8BC818DF82A3023469A4673
:1050B00013F8012B0AB1252AF9D1BAEB040B0BD056
:1050C0005B46224629463046FFF793FF013000F049
:1050D000AA80099A5A4409929AF80030002B00F0ED
:1050E000A28000234FF0FF32CDE905230AF1010A27
:1050F000049307938DF853301A935446052214F8FD
:10510000011B5848FEF7CAFF049AD8B9D10644BF1C
:1051100020238DF85330130744BF2B238DF85330D1
:105120009AF800302A2B15D0544600204FF00A0C74
:10513000079A214611F8013B303B092B4ED9B0B1FB
:10514000079214E0A0EB080309FA03F31343A24605
:105150000493D2E7039B191D1B680391002BBBBF6F
:105160005B4242F0020207930793B8BF0492237890
:105170002E2B0CD163782A2B35D1039B02341A1DB8
:105180001B680392002BB8BF4FF0FF330593DFF885
:10519000E4A0032250462178FEF780FF40B140236F
:1051A000A0EB0A0003FA00F0049B013403430493CC
:1051B00014F8011B06222C488DF82810FEF76EFF0C
:1051C00000283FD0294B1BBB039B073323F0070369
:1051D00008330393099B3B44099367E70C4601207E
:1051E0000CFB0232A5E700234FF00A0C19460134EC
:1051F0000593204610F8012B303A092A03D9002BD9
:10520000C5D00591C3E7044601230CFB0121F0E75B
:1052100003AB00932A463046154B04A9FCF7A0F8CF
:105220000746781CD6D16B6ED90705D4AB899A0591
:1052300002D4A86D00F0A1FAAB895B063FF512AF6E
:10524000099811E703AB00932A463046084B04A99E
:10525000FCF722FBE4E700BFD45E0008F45E000820
:10526000B45E0008645E00086E5E0008611300080A
:10527000F34F00086A5E0008F8B50E46144605466E
:1052800018B183690BB900F0D9F9214B9C422BD19D
:105290006C68A369A360A3891A072FD523696BB330
:1052A00023692068F6B2C01A63693746834204DC7A
:1052B0002146284600F02EF930BBA3680130013B9F
:1052C000A36023685A1C22601E706369834204D065
:1052D000A389DB0706D50A2E04D12146284600F013
:1052E00019F988B93846F8BD0A4B9C4201D1AC681F
:1052F000CFE7094B9C4208BFEC68CAE72146284625
:1053000000F00CF80028CBD04FF0FF37EAE700BFE1
:10531000D45E0008F45E0008B45E0008324B70B53D
:105320001D6806460C4625B1AB6913B9284600F046
:1053300085F92E4B9C420FD16C68A389B4F90C20DF
:1053400019072CD4DD0611D40923336042F0400341
:105350004FF0FF30A3813EE0254B9C4201D1AC6869
:10536000EBE7244B9C4208BFEC68E6E7580712D5F0
:10537000616B41B104F14403994202D03046FFF71A
:105380006FFB00236363A38923F02403A38100231D
:10539000636023692360A38943F00803A381236921
:1053A0004BB9A38903F42073B3F5007F03D02146E2
:1053B000304600F007FAA089B4F90C2010F0010380
:1053C0000AD00023A36063695B42A361236943B9E8
:1053D00010F08000BAD170BD810758BF6369A36027
:1053E000F4E70020F7E700BF00000020D45E0008CB
:1053F000F45E0008B45E0008062008B500F052FA1A
:105400000120FBF70AFE00008A892DE9F0410546DC
:1054100010070C4658D44B68002B05DC0B6C002B96
:1054200002DC0020BDE8F081E66A002EF9D00023FE
:1054300012F480522F682B6032D0606DA3895A0716
:1054400005D56368C01A636B0BB1236CC01A0023C7
:105450000246E66A2846216AB047431CA38906D162
:1054600029681D292CD82A4ACA40D60728D50022E7
:1054700062602269D904226004D5421C01D12B68E4
:1054800003B96065616B2F600029CAD004F1440341
:10549000994202D02846FFF7E3FA00206063C1E793
:1054A000216A01232846B047411CC7D12B68002B35
:1054B000C4D01D2B01D0162B01D12F60B1E7A389D9
:1054C00043F04003A381ADE70F69002FA9D09307F4
:1054D00018BF00230E6808BF4B69A6EB07080F60D2
:1054E0008B60B8F1000F9CDD43463A462846216A9E
:1054F000A66AB047002806DCA3894FF0FF3043F0CE
:105500004003A3818EE70744A8EB0008E9E700BF4A
:105510000100402038B50B6905460C4613B900253B
:10552000284638BD18B183690BB900F087F8144BD1
:105530009C421BD16C68B4F90C30002BEFD0626E2A
:10554000D00704D4990502D4A06D00F015F92846BF
:105550002146FFF759FF636E0546DA07E0D4A389B9
:105560009B05DDD4A06D00F008F9D9E7054B9C42FE
:1055700001D1AC68DFE7044B9C4208BFEC68DAE776
:10558000D45E0008F45E0008B45E0008002310B585
:105590000446C0E90033C0E9043383608181436677
:1055A000C2818361194608225C30FBF733FE054B4C
:1055B00024626362044BA362044BE362044B2363E3
:1055C00010BD00BFDD580008FF580008375900081B
:1055D0005B590008014900F0AFB800BF155500083D
:1055E00070B568254A1E55430E4605F17401FFF754
:1055F00083FA044640B10021C0E900160C30A060D7
:1056000005F16802FBF706FE204670BD014800F078
:10561000B3B800BF10030020014800F0AEB800BFCF
:1056200010030020014800F0A7B800BF0B030020C2
:10563000014800F0A2B800BF0B03002010B50446DB
:10564000FFF7F0FFA3691BB1BDE81040FFF7F0BF03
:10565000C4E912332365134B134A1B68A262A342A9
:1056600008BF0123204608BFA36100F01FF8606057
:10567000204600F01BF8A060204600F017F800223A
:105680000421E0606068FFF781FF01220921A06822
:10569000FFF77CFF02221221E068FFF777FF01236A
:1056A000A361D1E7605A0008D5550008F8B5074650
:1056B000FFF7ACFF1E4B1E68B36913B93046FFF706
:1056C000BDFF4836D6E90134013B03D533680BB33F
:1056D0003668F7E7B4F90C50D5B9164B04F1580009
:1056E000E360656600F047F8FFF796FF0822294659
:1056F000C4E90155C4E904552560A56104F15C00C5
:10570000FBF788FDC4E90D55C4E912552046F8BDE4
:105710006834D9E704213846FFF762FF0446306059
:105720000028D5D1FFF778FF0C233B60EEE700BFE0
:10573000605A00080100FFFF2DE9F843064688463D
:10574000002700F14804D4E90195B9F1010905D514
:105750002468002CF7D13846BDE8F883AB89012BCB
:1057600007D9B5F90E30013303D029463046C0477A
:1057700007436835E9E770477047704770B50E46D4
:10578000B1F90E10144600291D4696B007DA002321
:105790002B60B3891A0610D44FF480630EE06A467A
:1057A00000F002F90028F2DB019A02F47042A2F53F
:1057B00000535A425A412A60EEE7402300202360FA
:1057C00016B070BD8B8973B59D0706460C4607D58C
:1057D00004F14703236023610123636102B070BDBC
:1057E0006A4601ABFFF7CAFF009905463046FFF74E
:1057F00083F948B9B4F90C309A05EFD423F00303C8
:1058000043F00203A381E3E70D4BB362A389206059
:1058100043F08003A381009B20616361019B5BB126
:105820003046B4F90E1000F0D1F828B1A38923F066
:10583000030343F00103A381A0890543A581CDE7BC
:10584000D555000851F8043C181F002BBCBF0B585D
:10585000C01870471F2938B504460D4604D91623D1
:1058600003604FF0FF3038BD426C12B152F8213066
:105870004BB9204600F030F82A4601462046BDE8E4
:10588000384000F017B8012B0AD0591C03D1162359
:1058900003600120E7E70024284642F825409847A6
:1058A0000020E0E7024B01461868FFF7D3BF00BFB6
:1058B0000000002038B50023064D04460846114676
:1058C0002B60FBF79AFB431C02D12B6803B12360CA
:1058D00038BD00BF04030020FBF788BB10B50C46A1
:1058E000B1F90E1000F094F80028ABBF636DA389E6
:1058F0001B1823F48053ACBF6365A38110BD2DE951
:10590000F0411F468B890546DB050C46164605D53A
:1059100002230022B1F90E1000F068F8A389324684
:1059200023F48053A38128463B46B4F90E10BDE80A
:10593000F04100F017B810B50C46B1F90E1000F0A8
:1059400055F8431CA38915BF606523F4805343F4C5
:105950008053A38118BFA38110BDB1F90E1000F0D0
:1059600013B8000038B50446084611460022054D1C
:105970002A601A46FBF778FB431C02D12B6803B15F
:10598000236038BD0403002038B50023054D0446CC
:1059900008462B60FBF784FB431C02D12B6803B144
:1059A000236038BD0403002038B50023064D0446AB
:1059B000084611462B60FBF77EFB431C02D12B6887
:1059C00003B1236038BD00BF0403002038B50023B5
:1059D000054D044608462B60FBF77CFB431C02D1B7
:1059E0002B6803B1236038BD0403002038B504469A
:1059F000084611460022054D2A601A46FBF774FB43
:105A0000431C02D12B6803B1236038BD040300207E
:105A100038B50446084611460022054D2A601A464C
:105A2000FBF705FB431C02D12B6803B1236038BD93
:105A300004030020F8B500BFF8BC08BC9E467047C0
:0C5A4000F8B500BFF8BC08BC9E467047DB
:105A5000256420202025312E3266560D00000000DE
:105A600004000020494E4600696E66004E414E001B
:105A70006E616E00300030313233343536373839AC
:105A800041424344454600303132333435363738AD
:105A9000396162636465660065256C64000000001E
:105AA00035000000CEFBFFFFCB030000010000002B
:105AB0000000000034000000CEFBFFFFCB0300001D
:105AC0000100000000000000BC89D897B2D29C3CC5
:105AD00033A7A8D523F649393DA7F444FD0FA532D5
